:100000000C943F000C945C000C945C000C945C001D
:100010000C945C000C945C000C945C000C945C00F0
:100020000C945C000C945C000C945C000C94100527
:100030000C945C000C945C000C945C000C945C00D0
:100040000C945C000C945C000C945C000C945C00C0
:100050000C945C000C945C000C945C000C945C00B0
:100060000C945C000C945C00D401DB01E101E8011C
:10007000EF01F601FD01040209021002170211242A
:100080001FBECFEFD8E0DEBFCDBF11E0A0E0B1E0F2
:10009000E6E3FDE002C005900D92A230B107D9F76A
:1000A00021E0A2E0B1E001C01D92A833B207E1F760
:1000B0000E940B050C9499060C9400000F931F935B
:1000C000689413F896958795779567951694D1F768
:1000D0000E944306CA01B901615071098109910961
:1000E0000E946C050E94D2050E943D05072F182F23
:1000F000292F33270093C5006093C40088E98093BB
:10010000C1008EE08093C2001F910F9108958F77F8
:10011000ECEBF0E0108294EA908390819923ECF765
:10012000880F8093BB0084E88093BC00ECEBF0E088
:1001300080818823ECF76093BB0084E88093BC0047
:10014000ECEBF0E080818823ECF74093BB0084E87F
:100150008093BC00ECEBF0E080818823ECF784E92D
:100160008093BC0008958F77ECEBF0E0108294EA66
:10017000908390819923ECF7982F990F9093BB006F
:1001800094E89093BC00ECEBF0E090819923ECF7BD
:100190006093BB0094E89093BC00ECEBF0E090819E
:1001A0009923ECF7ECEBF0E094E99083108294EA69
:1001B000908390819923ECF7880F81608093BB0036
:1001C00084E88093BC00ECEBF0E080818823ECF7BE
:1001D00084E88093BC00ECEBF0E080818823ECF7AE
:1001E0008091BB0094E99093BC000895389A259AB9
:1001F0002D98279A2F98269A2E98549A5C98539A5D
:100200005B98249A239A229A219A209A579A569A6E
:10021000559A08952F9A2E9A5C9A5B9A5F9828981F
:100220002A982B982C985E985D9829982F982E984C
:100230005C985B980895AB01BC01411551056105BF
:10024000710561F080E090E0DC0100000196A11DE5
:10025000B11D481759076A077B07B9F708950E942F
:100260000A01409A60E47DE083E090E00E941B0177
:1002700040980E940A012F9A2E9A5C9A5B9A5F9A84
:100280002F982E985C985B9860E47DE083E090E086
:100290000E941B010E940A012F9A2E9A5C9A5B9A77
:1002A000289A2F982E985C985B9860E47DE083E014
:1002B00090E00E941B010E940A012F9A2E9A5C9ADC
:1002C0005B9A2A9A2F982E985C985B9860E47DE060
:1002D00083E090E00E941B010E940A012F9A2E9A4F
:1002E0005C9A5B9A2B9A2F982E985C985B9860E4A6
:1002F0007DE083E090E00E941B010E940A012F9A9A
:100300002E9A5C9A5B9A2C9A2F982E985C985B9800
:1003100060E47DE083E090E00E941B010E940A01FE
:100320002F9A2E9A5C9A5B9A5E9A2F982E985C98D8
:100330005B9860E47DE083E090E00E941B010E94F6
:100340000A012F9A2E9A5C9A5B9A5D9A2F982E98A2
:100350005C985B9860E47DE083E090E00E941B0184
:100360000E940A012F9A2E9A5C9A5B9A299A2F98DA
:100370002E985C985B9860E47DE083E090E00E94BA
:100380001B010895E82F85B1807E85B98BB18F71EF
:100390008BB98E2F90E08B30910508F04CC0FC019A
:1003A000EC5CFF4F0C94650685B18D6185B98BB10E
:1003B000806C8BB9089585B1856085B98BB18BB997
:1003C000089585B1896185B98BB1806A8BB908952B
:1003D00085B18D6085B98BB1806A8BB9089585B17F
:1003E000856085B98BB180668BB9089585B18C60C5
:1003F00085B98BB1806E8BB9089585B18C6185B953
:100400008BB1806E8BB9089585B1856085B95F9A8F
:10041000089585B18D6185B98BB1806E8BB90895D2
:1004200085B18D6085B98BB1806E8BB9089585B12A
:1004300085B98BB18BB908950F931F93CF93DF9339
:10044000EC0199237CF06AE070E00E942F060E9484
:10045000C2015B9A61E070E080E090E00E941B01C5
:100460005B9813C0D195C195D109CE016AE070E0C7
:100470000E942F060E94C201299A5B9A61E070E0F7
:1004800080E090E00E941B015B9804E610E0CE0142
:10049000B8010E942F066AE070E00E942F06072E26
:1004A000000C880B990B0E946E050E94D2050E94D9
:1004B0003D05862F0E94C2015C9A61E070E080E0F9
:1004C00090E00E941B015C98CE0168EE73E00E94F0
:1004D0002F06EB01B8010E942F06072E000C880B97
:1004E000990B0E946E050E94D2050E943D05862F41
:1004F0000E94C2012E9A61E070E080E090E00E94CC
:100500001B012E98BE01DD0F880B990B0E946E0512
:100510000E94D2050E943D05862F0E94C2012F9A9B
:1005200061E070E080E090E00E941B012F9885B1AF
:10053000807E85B98BB18F718BB9DF91CF911F917F
:100540000F910895E1E8F0E080818260808388EE79
:1005500093E09093890080938800EFE6F0E080813B
:10056000826080830895CF936AEA87E70E94B30090
:10057000C82F6BEA87E70E94B3002C2F30E0322FA0
:100580002227282B30933701209336016CEA87E726
:100590000E94B300C82F6DEA87E70E94B3002C2F9A
:1005A00030E0322F2227282B30933501209334015D
:1005B0006EEA87E70E94B300C82F6FEA87E70E94C0
:1005C000B3002C2F30E0322F2227282B3093330119
:1005D0002093320166EB87E70E94B300C82F67EBD8
:1005E00087E70E94B3002C2F30E0322F2227282BE0
:1005F000309331012093300168EB87E70E94B3000C
:10060000C82F69EB87E70E94B3002C2F30E0322F10
:100610002227282B30932F0120932E016AEB87E7A6
:100620000E94B300C82F6BEB87E70E94B3002C2F0A
:1006300030E0322F2227282B30932D0120932C01DC
:100640006CEB87E70E94B300C82F6DEB87E70E9431
:10065000B3002C2F30E0322F2227282B30932B0190
:1006600020932A016EEB87E70E94B300C82F6FEB3F
:1006700087E70E94B3002C2F30E0322F2227282B4F
:10068000309329012093280160EB87E70E94B30093
:10069000C82F61EB87E70E94B3002C2F30E0322F88
:1006A0002227282B309323012093220162EB87E736
:1006B0000E94B300C82F63EB87E70E94B3002C2F82
:1006C00030E0322F2227282B309321012093200164
:1006D00064EB87E70E94B300C82F65EB87E70E94B1
:1006E000B3002C2F30E0322F2227A901482BCA015A
:1006F00090931F0180931E0140912201509123018C
:1007000060E070E040931A0150931B0160931C015C
:1007100070931D01409120015091210160E070E033
:1007200040931601509317016093180170931901BB
:10073000A0E0B0E08093120190931301A093140104
:10074000B093150180912A0190912B0199236CF0AF
:10075000092E000CAA0BBB0B80932401909325015A
:10076000A0932601B09327010FC09195819591091F
:10077000092E000CAA0BBB0B80932401909325013A
:10078000A0932601B0932701CF910895CF934EE215
:1007900064EF87E70E94870080E090E00000019608
:1007A000883C2FEA9207D1F766EF87E70E94B300F3
:1007B000C82F67EF87E70E94B3002C2F30E0322F5D
:1007C0002227A901482BCA01092E000CAA0BBB0B3A
:1007D00080930E0190930F01A0931001B09311012B
:1007E000CF910895CF92DF92EF92FF920F931F93D4
:1007F00040910E0150910F01609110017091110113
:100800008091120190911301A0911401B0911501F2
:100810009A01AB01281B390B4A0B5B0B6091160147
:100820007091170180911801909119010E941F0683
:100830006B017C010B2EBFE0F594E794D794C7942D
:10084000BA95D1F7B02D8091240190912501A09106
:100850002601B0912701072E7BE0880F991FAA1F60
:10086000BB1F7A95D1F7702D409128015091290135
:10087000052E000C660B770B4C0D5D1D6E1D7F1D4C
:1008800084179507A607B7078CF000E010E09801E1
:100890000F5F1F4F2F4F3F4F841B950BA60BB70BBE
:1008A00084179507A607B7079CF703C000E010E080
:1008B0009801C01AD10AE20AF30A88E0C80ED11CD6
:1008C000E11CF11C689413F8F594E794D794C7944D
:1008D0001694D1F7C0920A01D0920B01E0920C015C
:1008E000F0920D011F910F91FF90EF90DF90CF904C
:1008F0000895319906C0809109018F5F80930901A5
:1009000002C01092090132990AC0809108018F5FDC
:100910008093080180910901833038F411C010924E
:100920000801809109018330D0F0809100019091FD
:100930000101019690930101809300011092090139
:1009400080910801833058F080910001909101015D
:10095000019790930101809300011092080108957E
:1009600080910001909101010E941C0208950E9453
:10097000C6030E94F20380910A0190910B019093AB
:10098000010180930001089543983B9A60E07AE664
:1009900088E190E00E941B01439A0E94F6000E94A9
:1009A0002F0120E835E240E050E060E072E18AE7A4
:1009B00090E00E945E0082E18093B8000E94B30242
:1009C0000E94A202789408958091060190910701F7
:1009D000883C910530F010920701109206010E94A8
:1009E000B0048091040190910501C29730F01092FB
:1009F0000501109204010E947904809102019091F6
:100A00000301883E934030F01092030110920201DE
:100A10000E94B70408950E94C4040E94E404FDCF1C
:100A20001F920F920FB60F9211248F939F93809174
:100A300006019091070101969093070180930601AA
:100A40008091040190910501019690930501809396
:100A5000040180910201909103010196909303019A
:100A60008093020110928500109284009F918F91D3
:100A70000F900FBE0F901F9018950E94B10588F03F
:100A80009F5798F0B92F9927B751B0F0E1F0660F52
:100A9000771F881F991F1AF0BA95C9F714C0B13093
:100AA00091F00E94CB05B1E008950C94CB05672F1F
:100AB000782F8827B85F39F0B93FCCF386957795C2
:100AC0006795B395D9F73EF49095809570956195AB
:100AD0007F4F8F4F9F4F0895E89409C097FB3EF4D6
:100AE00090958095709561957F4F8F4F9F4F99237B
:100AF000A9F0F92F96E9BB279395F69587957795F9
:100B00006795B795F111F8CFFAF4BB0F11F460FFB8
:100B10001BC06F5F7F4F8F4F9F4F16C0882311F010
:100B200096E911C0772321F09EE8872F762F05C024
:100B3000662371F096E8862F70E060E02AF09A95BF
:100B4000660F771F881FDAF7880F9695879597F9B4
:100B5000089557FD9058440F551F59F05F3F71F0AD
:100B60004795880F97FB991F61F09F3F79F0879514
:100B70000895121613061406551FF2CF4695F1DF9D
:100B800008C0161617061806991FF1CF869571052D
:100B9000610508940895E894BB2766277727CB0161
:100BA00097F908950E94B105E8F09E37E8F096396C
:100BB000B8F49E3848F4672F782F8827985FF9CFCC
:100BC00086957795679593959539D0F3B62FB17043
:100BD0006B0F711D811D20F487957795679593950F
:100BE0000C94F6050C9411060C94CC05882371F432
:100BF000772321F09850872B762F07C0662311F4B6
:100C000099270DC09051862B70E060E02AF09A95EC
:100C1000660F771F881FDAF7880F9695879597F9E3
:100C200008959F3F31F0915020F48795779567950F
:100C3000B795880F911D9695879597F90895DB01D3
:100C40008F939F930E946B06BF91AF91A29F800DDF
:100C5000911DA39F900DB29F900D1124089597FBB5
:100C6000072E16F4009407D077FD09D00E9476066F
:100C700007FC05D03EF4909581959F4F089570959F
:100C800061957F4F0895A1E21A2EAA1BBB1BFD019F
:100C90000DC0AA1FBB1FEE1FFF1FA217B307E4075B
:100CA000F50720F0A21BB30BE40BF50B661F771FB3
:100CB000881F991F1A9469F7609570958095909593
:100CC0009B01AC01BD01CF010895EE0FFF1F059000
:100CD000F491E02D09940E948A06A59F900DB49F7F
:100CE000900DA49F800D911D11240895AA1BBB1B7C
:100CF00051E107C0AA1FBB1FA617B70710F0A61B1C
:100D0000B70B881F991F5A95A9F780959095BC013C
:100D1000CD010895A29FB001B39FC001A39F700DA4
:100D2000811D1124911DB29F700D811D1124911DF3
:060D30000895F894FFCFC6
:020D3600F1D8F2
:00000001FF
