S00C00006D6167312E73726563B2
S11300000C943F000C945C000C945C000C945C0019
S11300100C945C000C945C000C945C000C945C00EC
S11300200C945C000C945C000C945C000C944503F0
S11300300C945C000C945C000C945C000C945C00CC
S11300400C945C000C945C000C945C000C945C00BC
S11300500C945C000C945C000C945C000C945C00AC
S11300600C945C000C945C00A801AF01B501BC01C8
S1130070C301CA01D101D801DD01E401EB0111245E
S11300801FBECFEFD8E0DEBFCDBF11E0A0E0B1E0EE
S1130090ECE4F9E002C005900D92A230B107D9F763
S11300A021E0A2E0B1E001C01D92A031B207E1F766
S11300B00E9440030C94A4040C9400000F931F931B
S11300C0689413F896958795779567951694D1F764
S11300D00E946804CA01B90161507109810991093A
S11300E00E94A1030E9407040E947203072F182F85
S11300F0292F33270093C5006093C40088E98093B7
S1130100C1008EE08093C2001F910F9108958F77F4
S1130110ECEBF0E0108294EA908390819923ECF761
S1130120982F990F9093BB0094E89093BC00ECEB4C
S1130130F0E090819923ECF76093BB0094E89093EE
S1130140BC00ECEBF0E090819923ECF7ECEBF0E0F1
S113015094E99083108294EA908390819923ECF738
S1130160880F81608093BB0084E88093BC00ECEB33
S1130170F0E080818823ECF784E88093BC00ECEB0A
S1130180F0E080818823ECF78091BB0094E99093A0
S1130190BC000895389A259A2D98279A2F98269A64
S11301A02E98549A5C98539A5B98249A239A229A8C
S11301B0219A209A579A569A559A08952F9A2E9AC8
S11301C05C9A5B9A5F9828982A982B982C985E984A
S11301D05D9829982F982E985C985B980895AB01A8
S11301E0BC01411551056105710561F080E090E0A5
S11301F0DC0100000196A11DB11D481759076A07CB
S11302007B07B9F708950E94DE00409A60E47DE020
S113021083E090E00E94EF0040980E94DE002F9A55
S11302202E9A5C9A5B9A5F9A2F982E985C985B98AA
S113023060E47DE083E090E00E94EF000E94DE0035
S11302402F9A2E9A5C9A5B9A289A2F982E985C98EB
S11302505B9860E47DE083E090E00E94EF000E9400
S1130260DE002F9A2E9A5C9A5B9A2A9A2F982E98DF
S11302705C985B9860E47DE083E090E00E94EF008E
S11302800E94DE002F9A2E9A5C9A5B9A2B9A2F98E2
S11302902E985C985B9860E47DE083E090E00E9497
S11302A0EF000E94DE002F9A2E9A5C9A5B9A2C9A99
S11302B02F982E985C985B9860E47DE083E090E052
S11302C00E94EF000E94DE002F9A2E9A5C9A5B9A9D
S11302D05E9A2F982E985C985B9860E47DE083E0AA
S11302E090E00E94EF000E94DE002F9A2E9A5C9A02
S11302F05B9A5D9A2F982E985C985B9860E47DE0F9
S113030083E090E00E94EF000E94DE002F9A2E9A74
S11303105C9A5B9A299A2F982E985C985B9860E473
S11303207DE083E090E00E94EF000895E82F85B11E
S1130330807E85B98BB18F718BB98E2F90E08B3015
S1130340910508F04CC0FC01EC5CFF4F0C948A044E
S113035085B18D6185B98BB1806C8BB9089585B1F8
S1130360856085B98BB18BB9089585B1896185B9EB
S11303708BB1806A8BB9089585B18D6085B98BB1D5
S1130380806A8BB9089585B1856085B98BB1806623
S11303908BB9089585B18C6085B98BB1806E8BB9AA
S11303A0089585B18C6185B98BB1806E8BB9089540
S11303B085B1856085B95F9A089585B18D6185B9E8
S11303C08BB1806E8BB9089585B18D6085B98BB181
S11303D0806E8BB9089585B185B98BB18BB90895B9
S11303E00F931F93CF93DF93EC0199237CF06AE082
S11303F070E00E9454040E9496015B9A61E070E0F0
S113040080E090E00E94EF005B9813C0D195C19505
S1130410D109CE016AE070E00E9454040E94960162
S1130420299A5B9A61E070E080E090E00E94EF001E
S11304305B9804E610E0CE01B8010E9454046AE01F
S113044070E00E945404072E000C880B990B0E9444
S1130450A3030E9407040E947203862F0E94960140
S11304605C9A61E070E080E090E00E94EF005C98AC
S1130470CE0168EE73E00E945404EB01B8010E94BF
S11304805404072E000C880B990B0E94A3030E94AE
S113049007040E947203862F0E9496012E9A61E03F
S11304A070E080E090E00E94EF002E98BE01DD0F26
S11304B0880B990B0E94A3030E9407040E947203F5
S11304C0862F0E9496012F9A61E070E080E090E010
S11304D00E94EF002F9885B1807E85B98BB18F7112
S11304E08BB9DF91CF911F910F910895E1E8F0E06E
S11304F080818260808388EE93E09093890080936A
S11305008800EFE6F0E0808182608083089531996D
S113051006C0809109018F5F8093090102C0109287
S1130520090132990AC0809108018F5F8093080104
S113053080910901833038F411C010920801809130
S113054009018330D0F0809100019091010101965E
S11305509093010180930001109209018091080198
S1130560833058F08091000190910101019790939C
S11305700101809300011092080108958091000107
S1130580909101010E94F0010895CF9343983B9A02
S113059060E07AE688E190E00E94EF00439A0E94CE
S11305A0CA000E94030120E835E240E050E060E028
S11305B072E18AE790E00E945E0082E18093B800D5
S11305C06BEA87E70E948700C82F6AEA87E70E94E0
S11305D087002C2F30E0322F2227282B30930F0155
S11305E020930E016DEA87E70E948700C82F6CEA0A
S11305F087E70E9487002C2F30E0322F2227282BF8
S113060030930D0120930C016FEA87E70E94870065
S1130610C82F6EEA87E70E9487002C2F30E0322F24
S11306202227282B30930B0120930A010E94760283
S11306307894CF9108958091060190910701883CA8
S1130640910530F010920701109206010E94BE023B
S11306508091040190910501C29730F01092050138
S1130660109204010E94870280910201909103017B
S11306708436910520F0109203011092020108952E
S11306800E94C5020E941B03FDCF1F920F920FB65A
S11306900F9211248F939F938091060190910701EB
S11306A00196909307018093060180910401909133
S11306B00501019690930501809304018091020144
S11306C0909103010196909303018093020110928B
S11306D08500109284009F918F910F900FBE0F9010
S11306E01F9018950E94E60388F09F5798F0B92F41
S11306F09927B751B0F0E1F0660F771F881F991F53
S11307001AF0BA95C9F714C0B13091F00E940004F0
S1130710B1E008950C940004672F782F8827B85F00
S113072039F0B93FCCF3869577956795B395D9F7AA
S11307303EF490958095709561957F4F8F4F9F4FB4
S11307400895E89409C097FB3EF4909580957095C0
S113075061957F4F8F4F9F4F9923A9F0F92F96E909
S1130760BB279395F695879577956795B795F1117E
S1130770F8CFFAF4BB0F11F460FF1BC06F5F7F4F1B
S11307808F4F9F4F16C0882311F096E911C077232D
S113079021F09EE8872F762F05C0662371F096E836
S11307A0862F70E060E02AF09A95660F771F881F05
S11307B0DAF7880F9695879597F9089557FD90581D
S11307C0440F551F59F05F3F71F04795880F97FB11
S11307D0991F61F09F3F79F08795089512161306CB
S11307E01406551FF2CF4695F1DF08C016161706FA
S11307F01806991FF1CF869571056105089408952F
S1130800E894BB2766277727CB0197F908950E94C0
S1130810E603E8F09E37E8F09639B8F49E3848F4D9
S1130820672F782F8827985FF9CF869577956795F6
S113083093959539D0F3B62FB1706B0F711D811D4F
S113084020F487957795679593950C942B040C94D5
S113085046040C940104882371F4772321F0985002
S1130860872B762F07C0662311F499270DC090516A
S1130870862B70E060E02AF09A95660F771F881F38
S1130880DAF7880F9695879597F908959F3F31F089
S1130890915020F4879577956795B795880F911DAA
S11308A09695879597F9089597FB072E16F400946B
S11308B007D077FD09D00E94900407FC05D03EF4D0
S11308C0909581959F4F0895709561957F4F0895F8
S11308D0A1E21A2EAA1BBB1BFD010DC0AA1FBB1F40
S11308E0EE1FFF1FA217B307E407F50720F0A21BB2
S11308F0B30BE40BF50B661F771F881F991F1A941F
S113090069F760957095809590959B01AC01BD0148
S1130910CF010895EE0FFF1F0590F491E02D099487
S1130920AA1BBB1B51E107C0AA1FBB1FA617B70711
S113093010F0A61BB70B881F991F5A95A9F780952D
S10F09409095BC01CD010895F894FFCF00
S105094CF1D8DC
S9030000FC
