:100000000C9434000C943E000C943E000C943E0082
:100010000C943E000C943E000C943E000C943E0068
:100020000C943E000C943E000C943E000C943E0058
:100030000C943E000C943E000C943E000C943E0048
:100040000C943E000C943E000C943E000C943E0038
:100050000C943E000C943E000C943E000C943E0028
:100060000C943E000C943E0011241FBECFEFD8E04C
:10007000DEBFCDBF0E949A000C94A3010C94000037
:100080000F931F93689413F89695879577956795C6
:100090001694D1F70E948101CA01B901615071091A
:1000A000810991090E94CE000E9434010E949F00A4
:1000B000072F182F292F33270093C5006093C40002
:1000C00088E98093C1008EE08093C2001F910F9158
:1000D0000895E0ECF0E0908195FFFDCF8093C6009D
:1000E0000895AB01BC01411551056105710561F031
:1000F00080E090E0DC0100000196A11DB11D4817D1
:1001000059076A077B07B9F7089520E835E240E010
:1001100050E060E072E18AE790E00E9440000895BC
:1001200081E20E94690068E873E180E090E00E944B
:10013000710008950E9485000E949000FDCF0E94EA
:10014000130188F09F5798F0B92F9927B751B0F055
:10015000E1F0660F771F881F991F1AF0BA95C9F74B
:1001600014C0B13091F00E942D01B1E008950C94BB
:100170002D01672F782F8827B85F39F0B93FCCF36E
:10018000869577956795B395D9F73EF490958095C8
:10019000709561957F4F8F4F9F4F0895E89409C0E8
:1001A00097FB3EF490958095709561957F4F8F4FAA
:1001B0009F4F9923A9F0F92F96E9BB279395F695C0
:1001C000879577956795B795F111F8CFFAF4BB0F3E
:1001D00011F460FF1BC06F5F7F4F8F4F9F4F16C0A2
:1001E000882311F096E911C0772321F09EE8872F2C
:1001F000762F05C0662371F096E8862F70E060E0E8
:100200002AF09A95660F771F881FDAF7880F969560
:10021000879597F9089557FD9058440F551F59F049
:100220005F3F71F04795880F97FB991F61F09F3FE3
:1002300079F087950895121613061406551FF2CF0C
:100240004695F1DF08C0161617061806991FF1CF5C
:1002500086957105610508940895E894BB27662783
:100260007727CB0197F908950E941301E8F09E3794
:10027000E8F09639B8F49E3848F4672F782F88272D
:10028000985FF9CF86957795679593959539D0F3D3
:10029000B62FB1706B0F711D811D20F48795779576
:1002A000679593950C9458010C9473010C942E014E
:1002B000882371F4772321F09850872B762F07C07D
:1002C000662311F499270DC09051862B70E060E0F1
:1002D0002AF09A95660F771F881FDAF7880F969590
:1002E000879597F908959F3F31F0915020F48795B5
:1002F00077956795B795880F911D9695879597F98E
:100300000895A1E21A2EAA1BBB1BFD010DC0AA1F56
:10031000BB1FEE1FFF1FA217B307E407F50720F06E
:10032000A21BB30BE40BF50B661F771F881F991FE9
:100330001A9469F760957095809590959B01AC0132
:0A034000BD01CF010895F894FFCF2E
:00000001FF
