:100000000C943F000C945C000C945C000C945C001D
:100010000C945C000C945C000C945C000C945C00F0
:100020000C945C000C945C000C945C000C946F07C6
:100030000C945C000C945C000C945C000C945C00D0
:100040000C945C000C945C000C945C000C945C00C0
:100050000C945C000C945C000C945C000C945C00B0
:100060000C945C000C945C0013021A02200227021C
:100070002E0235023C02430248024F02560211246E
:100080001FBECFEFD8E0DEBFCDBF11E0A0E0B1E0F2
:10009000E2E4F2E102C005900D92A230B107D9F777
:1000A00021E0A2E0B1E001C01D92A836B207E1F75D
:1000B0000E946A070C941F090C9400000F931F9371
:1000C000689413F896958795779567951694D1F768
:1000D0000E94A208CA01B901615071098109910900
:1000E0000E94CB070E9431080E949C07072F182FFF
:1000F000292F33270093C5006093C40088E98093BB
:10010000C1008EE08093C2001F910F910895E0EC32
:10011000F0E0208125FFFDCF8093C600E0ECF0E009
:10012000808185FFFDCF9093C6000895AB01BC018F
:10013000E0ECF0E0808185FFFDCF4093C600E0EC6D
:10014000F0E0808185FFFDCFBB2777FDBA95A72F13
:10015000962F852F8093C600E0ECF0E0808185FF2C
:10016000FDCFCB01BB2797FDB095AB2F8093C60089
:10017000E0ECF0E0808185FFFDCF472F772747FD3A
:100180007095572F672F4093C60008958F77ECEB3B
:10019000F0E0108294EA908390819923ECF7880F25
:1001A0008093BB0084E88093BC00ECEBF0E080819E
:1001B0008823ECF76093BB0084E88093BC00ECEBF1
:1001C000F0E080818823ECF74093BB0084E88093C3
:1001D000BC00ECEBF0E080818823ECF784E98093AD
:1001E000BC0008958F77ECEBF0E0108294EA9083E6
:1001F00090819923ECF7982F990F9093BB0094E886
:100200009093BC00ECEBF0E090819923ECF76093C5
:10021000BB0094E89093BC00ECEBF0E09081992354
:10022000ECF7ECEBF0E094E99083108294EA908391
:1002300090819923ECF7880F81608093BB0084E85C
:100240008093BC00ECEBF0E080818823ECF784E83D
:100250008093BC00ECEBF0E080818823ECF7809188
:10026000BB0094E99093BC000895389A259A2D9884
:10027000279A2F98269A2E98549A5C98539A5B98AE
:10028000249A239A229A219A209A579A569A559AF2
:1002900008952F9A2E9A5C9A5B9A5F9828982A98CC
:1002A0002B982C985E985D9829982F982E985C989A
:1002B0005B980895AB01BC014115510561057105BD
:1002C00061F080E090E0DC0100000196A11DB11D0D
:1002D000481759076A077B07B9F708950E94490133
:1002E000409A60E47DE083E090E00E945A014098EB
:1002F0000E9449012F9A2E9A5C9A5B9A5F9A2F98D6
:100300002E985C985B9860E47DE083E090E00E942A
:100310005A010E9449012F9A2E9A5C9A5B9A289A58
:100320002F982E985C985B9860E47DE083E090E0E5
:100330000E945A010E9449012F9A2E9A5C9A5B9A58
:100340002A9A2F982E985C985B9860E47DE083E071
:1003500090E00E945A010E9449012F9A2E9A5C9ABD
:100360005B9A2B9A2F982E985C985B9860E47DE0BE
:1003700083E090E00E945A010E9449012F9A2E9A30
:100380005C9A5B9A2C9A2F982E985C985B9860E404
:100390007DE083E090E00E945A010E9449012F9A7B
:1003A0002E9A5C9A5B9A5E9A2F982E985C985B982E
:1003B00060E47DE083E090E00E945A010E944901E0
:1003C0002F9A2E9A5C9A5B9A5D9A2F982E985C9839
:1003D0005B9860E47DE083E090E00E945A010E9417
:1003E00049012F9A2E9A5C9A5B9A299A2F982E98F7
:1003F0005C985B9860E47DE083E090E00E945A01A5
:100400000895E82F85B1807E85B98BB18F718BB946
:100410008E2F90E08B30910508F04CC0FC01EC5C15
:10042000FF4F0C94E30885B18D6185B98BB1806C69
:100430008BB9089585B1856085B98BB18BB9089565
:1004400085B1896185B98BB1806A8BB9089585B111
:100450008D6085B98BB1806A8BB9089585B185604F
:1004600085B98BB180668BB9089585B18C6085B9EB
:100470008BB1806E8BB9089585B18C6185B98BB1D4
:10048000806E8BB9089585B1856085B95F9A0895AE
:1004900085B18D6185B98BB1806E8BB9089585B1B9
:1004A0008D6085B98BB1806E8BB9089585B185B9A2
:1004B0008BB18BB908950F931F93CF93DF93EC010A
:1004C00099237CF06AE070E00E948E080E9401028D
:1004D0005B9A61E070E080E090E00E945A015B98D6
:1004E00013C0D195C195D109CE016AE070E00E9498
:1004F0008E080E940102299A5B9A61E070E080E018
:1005000090E00E945A015B9804E610E0CE01B80129
:100510000E948E086AE070E00E948E08072E000C90
:10052000880B990B0E94CD070E9431080E949C07FE
:10053000862F0E9401025C9A61E070E080E090E00A
:100540000E945A015C98CE0168EE73E00E948E080A
:10055000EB01B8010E948E08072E000C880B990B46
:100560000E94CD070E9431080E949C07862F0E949E
:1005700001022E9A61E070E080E090E00E945A0152
:100580002E98BE01DD0F880B990B0E94CD070E94AB
:1005900031080E949C07862F0E9401022F9A61E079
:1005A00070E080E090E00E945A012F9885B1807E33
:1005B00085B98BB18F718BB9DF91CF911F910F915D
:1005C0000895E1E8F0E080818260808388EE93E026
:1005D0009093890080938800EFE6F0E0808182604C
:1005E000808308950F931F93CF936AEA87E70E9451
:1005F000F200C82F6BEA87E70E94F2002C2F30E050
:10060000322F2227282B30936701209366016CEA52
:1006100087E70E94F200C82F6DEA87E70E94F20088
:100620002C2F30E0322F2227282B30936501209386
:1006300064016EEA87E70E94F200C82F6FEA87E73D
:100640000E94F2002C2F30E0322F2227282B3093EB
:1006500063012093620166EB87E70E94F200C82FD6
:1006600067EB87E70E94F2002C2F30E0322F222721
:10067000282B309361012093600168EB87E70E948B
:10068000F200C82F69EB87E70E94F2002C2F30E0C0
:10069000322F2227282B30935F0120935E016AEBD3
:1006A00087E70E94F200C82F6BEB87E70E94F200F9
:1006B0002C2F30E0322F2227282B30935D012093FE
:1006C0005C016CEB87E70E94F200C82F6DEB87E7B7
:1006D0000E94F2002C2F30E0322F2227282B30935B
:1006E0005B0120935A016EEB87E70E94F200C82F4E
:1006F0006FEB87E70E94F2002C2F30E0322F222789
:10070000282B309359012093580160EB87E70E9412
:10071000F200C82F61EB87E70E94F2002C2F30E037
:10072000322F2227282B309353012093520162EB62
:1007300087E70E94F200C82F63EB87E70E94F20070
:100740002C2F30E0322F2227282B30935101209379
:10075000500164EB87E70E94F200C82F65EB87E742
:100760000E94F2002C2F30E0322F2227A901482BC3
:10077000CA0190934F0180934E01409152015091D4
:10078000530160E070E040934A0150934B01609345
:100790004C0170934D01009150011091510120E0E6
:1007A00030E00093460110934701209348013093B5
:1007B0004901A0E0B0E08093420190934301A093EF
:1007C0004401B093450180915E0190915F01092E33
:1007D000000CAA0BBB0B80933A0190933B01A093B2
:1007E0003C01B0933D018091640190916501092E17
:1007F000000CAA0BBB0B8093360190933701A0939A
:100800003801B09339018091660190916701092EFA
:10081000000CAA0BBB0B8093320190933301A09381
:100820003401B09335018091620190916301092EEA
:10083000000CAA0BBB0B80932E0190932F01A09369
:100840003001B09331018091600190916101092ED6
:10085000000CAA0BBB0B80932A0190932B01A09351
:100860002C01B0932D0140932601509327016093F2
:1008700028017093290180915A0190915B0199237D
:100880006CF0092E000CAA0BBB0B809354019093C3
:100890005501A0935601B09357010FC091958195D2
:1008A0009109092E000CAA0BBB0B80935401909365
:1008B0005501A0935601B0935701CF911F910F910D
:1008C0000895CF934EE264EF87E70E94C60080E070
:1008D00090E000000196883C2FEA9207D1F766EF7E
:1008E00087E70E94F200C82F67EF87E70E94F200B7
:1008F0002C2F30E0322F2227A901482BCA01092EC4
:10090000000CAA0BBB0B8093220190932301A093B0
:100910002401B0932501CF910895CF92DF92EF92F9
:10092000FF920F931F9340912201509123016091F8
:100930002401709125018091420190914301A09181
:100940004401B09145019A01AB01281B390B4A0BB8
:100950005B0B609146017091470180914801909135
:1009600049010E947E086B017C010B2EBFE0F594CB
:10097000E794D794C794BA95D1F7B02D80915401DC
:1009800090915501A0915601B0915701072E7BE03F
:10099000880F991FAA1FBB1F7A95D1F7702D409120
:1009A000580150915901052E000C660B770B4C0D28
:1009B0005D1D6E1D7F1D84179507A607B7078CF078
:1009C00000E010E098010F5F1F4F2F4F3F4F841B37
:1009D000950BA60BB70B84179507A607B7079CF7CF
:1009E00003C000E010E09801D701C601801B910B05
:1009F000A20BB30B80933E0190933F01A093400163
:100A0000B09341010896A11DB11D689413F8B595E6
:100A1000A795979587951694D1F780931E0190938B
:100A20001F01A0932001B09321011F910F91FF900E
:100A3000EF90DF90CF9008950F931F93CF9344E3EF
:100A400064EF87E70E94C60080E090E00000019616
:100A5000883C0FEA9007D1F766EF87E70E94F20023
:100A6000C82F67EF87E70E94F2004C2F50E060E04C
:100A700070E0762F652F542F44278A019B01080FC1
:100A8000111D211D311D00931A0110931B0120938C
:100A90001C0130931D0100930A0110930B01209358
:100AA0000C0130930D01CF911F910F9108954F923A
:100AB0005F926F927F928F929F92AF92BF92CF92EE
:100AC000DF92EF92FF920F931F93CF93DF9300D0AB
:100AD00000D0CDB7DEB740903E0150903F0160900E
:100AE000400170904101D301C201805A9F40A10989
:100AF000B10989839A83AB83BC839C01AD01BC019E
:100B0000CD010E947E082B013C01032E3CE0759430
:100B10006794579447943A95D1F7302D60912E0100
:100B200070912F0180913001909131010E947E08D7
:100B30004B015C01072E7DE0B594A79497948794B0
:100B40007A95D1F7702D60912A0170912B018091D7
:100B50002C0190912D01A30192010E947E08BB27D8
:100B600097FDB095AB2F880D991DAA1DBB1D029650
:100B7000A11DB11DB595A79597958795B595A79595
:100B8000979587959C01AD0130584F4F5F4F60910D
:100B900026017091270180912801909129010E94DE
:100BA0007E086B017C010B2EBFE0F694E794D7948E
:100BB000C794BA95D1F7B02D60913A0170913B017D
:100BC00080913C0190913D01A30192010E947E0819
:100BD0002B013C01032E3BE0759467945794479496
:100BE0003A95D1F7302D609136017091370180919F
:100BF00038019091390129813A814B815C810E94B1
:100C00007E08DC01CB01072E7BE0B595A795979573
:100C100087957A95D1F7702D840D951DA61DB71D6A
:100C2000409132015091330160913401709135014E
:100C3000440F551F661F771F440F551F661F771FF0
:100C4000840F951FA61FB71F0296A11DB11DB59554
:100C5000A79597958795B595A79597958795409171
:100C60000A0150910B0160910C0170910D019A01E4
:100C7000AB01281B390B4A0B5B0BA0E5B3EC0E94C0
:100C8000E9086C157D058E059F0588F000E010E0F1
:100C900098010F5F1F4F2F4F3F4F6C197D098E0931
:100CA0009F096C157D058E059F0598F703C000E030
:100CB00010E0980168017901CC0CDD1CEE1CFF1CD2
:100CC000C0920E01D0920F01E0921001F09211013A
:100CD000A3E4B3EEA70196010E94F7088C01332725
:100CE00017FD3095232F080D191D2A1D3B1D01539B
:100CF000114F2F4F3F4F689413F83595279517954F
:100D000007951694D1F70C0D1D1D2E1D3F1D009348
:100D10001201109313012093140130931501809157
:100D20002201909123010E94870060910A01709135
:100D30000B0180910C0190910D010E949600609131
:100D400012017091130180911401909115010E947C
:100D5000960060911201709113018091140190919D
:100D600015012AE030E040E050E00E94C4082093E2
:100D700016013093170140931801509319010F90F9
:100D80000F900F900F90DF91CF911F910F91FF90D7
:100D9000EF90DF90CF90BF90AF909F908F907F901B
:100DA0006F905F904F900895319906C0809109012E
:100DB0008F5F8093090102C01092090132990AC025
:100DC000809108018F5F8093080180910901833031
:100DD00038F411C010920801809109018330D0F0DD
:100DE00080910001909101010196909301018093FF
:100DF00000011092090180910801833058F0809120
:100E000000019091010101979093010180930001ED
:100E100010920801089580910001909101010E94B3
:100E20005B0208950E9461040E948D040E941C05CB
:100E30000E9457058091160190911701909301012E
:100E400080930001089543983B9A60E07AE688E138
:100E500090E00E945A01439A0E9435010E946E015F
:100E600020E835E240E050E060E072E18AE790E09F
:100E70000E945E0082E18093B8000E94F2020E940C
:100E8000E102789408958091060190910701883CD1
:100E9000910530F010920701109206010E940B0795
:100EA0008091040190910501C29730F010920501E4
:100EB000109204010E94D4068091020190910301D6
:100EC000883E934030F010920301109202010E947C
:100ED000120708950E9423070E944307FDCF1F9227
:100EE0000F920FB60F9211248F939F93809106015A
:100EF00090910701019690930701809306018091DC
:100F000004019091050101969093050180930401DD
:100F100080910201909103010196909303018093C7
:100F2000020110928500109284009F918F910F9082
:100F30000FBE0F901F9018950E94100888F09F57C1
:100F400098F0B92F9927B751B0F0E1F0660F771FED
:100F5000881F991F1AF0BA95C9F714C0B13091F0E3
:100F60000E942A08B1E008950C942A08672F782F70
:100F70008827B85F39F0B93FCCF3869577956795A8
:100F8000B395D9F73EF490958095709561957F4F14
:100F90008F4F9F4F0895E89409C097FB3EF49095BA
:100FA0008095709561957F4F8F4F9F4F9923A9F042
:100FB000F92F96E9BB279395F695879577956795D1
:100FC000B795F111F8CFFAF4BB0F11F460FF1BC015
:100FD0006F5F7F4F8F4F9F4F16C0882311F096E9A8
:100FE00011C0772321F09EE8872F762F05C0662356
:100FF00071F096E8862F70E060E02AF09A95660F0F
:10100000771F881FDAF7880F9695879597F90895C7
:1010100057FD9058440F551F59F05F3F71F04795A9
:10102000880F97FB991F61F09F3F79F0879508958E
:10103000121613061406551FF2CF4695F1DF08C0AD
:10104000161617061806991FF1CF869571056105CA
:1010500008940895E894BB2766277727CB0197F972
:1010600008950E941008E8F09E37E8F09639B8F429
:101070009E3848F4672F782F8827985FF9CF869598
:101080007795679593959539D0F3B62FB1706B0F1F
:10109000711D811D20F487957795679593950C9424
:1010A00055080C9470080C942B08882371F477234E
:1010B00021F09850872B762F07C0662311F49927CB
:1010C0000DC09051862B70E060E02AF09A95660F73
:1010D000771F881FDAF7880F9695879597F90895F7
:1010E0009F3F31F0915020F4879577956795B7959C
:1010F000880F911D9695879597F90895DB018F9339
:101100009F930E94E908BF91AF91A29F800D911D0E
:10111000A39F900DB29F900D1124089597FB072E69
:1011200016F4009407D077FD09D00E94FC0807FC54
:1011300005D03EF4909581959F4F089570956195E7
:101140007F4F0895A1E21A2EAA1BBB1BFD010DC003
:10115000AA1FBB1FEE1FFF1FA217B307E407F50767
:1011600020F0A21BB30BE40BF50B661F771F881F43
:10117000991F1A9469F760957095809590959B01D9
:10118000AC01BD01CF010895052E97FB1EF400941C
:101190000E94DB0857FD07D00E94A20807FC03D07D
:1011A0004EF40C94DB0850954095309521953F4FB7
:1011B0004F4F5F4F089590958095709561957F4F43
:1011C0008F4F9F4F0895EE0FFF1F0590F491E02D74
:1011D00009940E941009A59F900DB49F900DA49FA3
:1011E000800D911D11240895B7FF0C94E9080E9409
:1011F000E908821B930B0895AA1BBB1B51E107C092
:10120000AA1FBB1FA617B70710F0A61BB70B881F96
:10121000991F5A95A9F780959095BC01CD01089525
:10122000A29FB001B39FC001A39F700D811D112427
:10123000911DB29F700D811D1124911D0895F89488
:02124000FFCFDE
:02124200F1D8E1
:00000001FF
