S00C00006D6167312E73726563B2
S11300000C943F000C945C000C945C000C945C0019
S11300100C945C000C945C000C945C000C945C00EC
S11300200C945C000C945C000C945C000C949B0895
S11300300C945C000C945C000C945C000C945C00CC
S11300400C945C000C945C000C945C000C945C00BC
S11300500C945C000C945C000C945C000C945C00AC
S11300600C945C000C945C0033023A024002470298
S11300704E0255025C02630268026F02760211248A
S11300801FBECFEFD8E0DEBFCDBF15E0A0E0B1E0EA
S1130090EAE9F4E102C005900D92A230B107D9F764
S11300A025E0A2E0B5E001C01D92A836B207E1F751
S11300B00E9496080C944B0A0C9400000F931F9313
S11300C0689413F896958795779567951694D1F764
S11300D00E94CE09CA01B9016150710981099109CF
S11300E00E94F7080E945D090E94C808072F182F74
S11300F0292F33270093C5006093C40088E98093B7
S1130100C1008EE08093C2001F910F910895E0EC2E
S1130110F0E0208125FFFDCF8093C600E0ECF0E005
S1130120808185FFFDCF9093C6000895AB01BC018B
S1130130E0ECF0E0808185FFFDCF4093C600E0EC69
S1130140F0E0808185FFFDCFBB2777FDBA95A72F0F
S1130150962F852F8093C600E0ECF0E0808185FF28
S1130160FDCFCB01BB2797FDB095AB2F8093C60085
S1130170E0ECF0E0808185FFFDCF472F772747FD36
S11301807095572F672F4093C60008958F77ECEB37
S1130190F0E0108294EA908390819923ECF7880F21
S11301A08093BB0084E88093BC00ECEBF0E080819A
S11301B08823ECF708958093BB0084E88093BC0007
S11301C0ECEBF0E080818823ECF708958F77ECEB7B
S11301D0F0E0108294EA908390819923ECF7880FE1
S11301E08093BB0084E88093BC00ECEBF0E080815A
S11301F08823ECF76093BB0084E88093BC00ECEBAD
S1130200F0E080818823ECF74093BB0084E880937E
S1130210BC00ECEBF0E080818823ECF784E9809368
S1130220BC0008958F77ECEBF0E0108294EA9083A1
S113023090819923ECF7982F990F9093BB0094E841
S11302409093BC00ECEBF0E090819923ECF7609381
S1130250BB0094E89093BC00ECEBF0E09081992310
S1130260ECF7ECEBF0E094E99083108294EA90834D
S113027090819923ECF7880F81608093BB0084E818
S11302808093BC00ECEBF0E080818823ECF784E8F9
S11302908093BC00ECEBF0E080818823ECF7809144
S11302A0BB0094E99093BC000895389A259A2D9840
S11302B0279A2F98269A2E98549A5C98539A5B986A
S11302C0249A239A229A219A209A579A569A559AAE
S11302D008952F9A2E9A5C9A5B9A5F9828982A9888
S11302E02B982C985E985D9829982F982E985C9856
S11302F05B980895AB01BC01411551056105710579
S113030061F080E090E0DC0100000196A11DB11DC8
S1130310481759076A077B07B9F708950E946901CE
S1130320409A60E47DE083E090E00E947A01409886
S11303300E9469012F9A2E9A5C9A5B9A5F9A2F9871
S11303402E985C985B9860E47DE083E090E00E94E6
S11303507A010E9469012F9A2E9A5C9A5B9A289AD4
S11303602F982E985C985B9860E47DE083E090E0A1
S11303700E947A010E9469012F9A2E9A5C9A5B9AD4
S11303802A9A2F982E985C985B9860E47DE083E02D
S113039090E00E947A010E9469012F9A2E9A5C9A39
S11303A05B9A2B9A2F982E985C985B9860E47DE07A
S11303B083E090E00E947A010E9469012F9A2E9AAC
S11303C05C9A5B9A2C9A2F982E985C985B9860E4C0
S11303D07DE083E090E00E947A010E9469012F9AF7
S11303E02E9A5C9A5B9A5E9A2F982E985C985B98EA
S11303F060E47DE083E090E00E947A010E9469015C
S11304002F9A2E9A5C9A5B9A5D9A2F982E985C98F4
S11304105B9860E47DE083E090E00E947A010E94B2
S113042069012F9A2E9A5C9A5B9A299A2F982E9892
S11304305C985B9860E47DE083E090E00E947A0140
S11304400895E82F85B1807E85B98BB18F718BB902
S11304508E2F90E08B30910508F04CC0FC01EC5CD1
S1130460FF4F0C940F0A85B18D6185B98BB1806CF7
S11304708BB9089585B1856085B98BB18BB9089521
S113048085B1896185B98BB1806A8BB9089585B1CD
S11304908D6085B98BB1806A8BB9089585B185600B
S11304A085B98BB180668BB9089585B18C6085B9A7
S11304B08BB1806E8BB9089585B18C6185B98BB190
S11304C0806E8BB9089585B1856085B95F9A08956A
S11304D085B18D6185B98BB1806E8BB9089585B175
S11304E08D6085B98BB1806E8BB9089585B185B95E
S11304F08BB18BB908950F931F93CF93DF93EC01C6
S113050099237CF06AE070E00E94BA090E942102FB
S11305105B9A61E070E080E090E00E947A015B9871
S113052013C0D195C195D109CE016AE070E00E9453
S1130530BA090E942102299A5B9A61E070E080E086
S113054090E00E947A015B9804E610E0CE01B801C5
S11305500E94BA096AE070E00E94BA09072E000CF2
S1130560880B990B0E94F9080E945D090E94C80833
S1130570862F0E9421025C9A61E070E080E090E0A6
S11305800E947A015C98CE0168EE73E00E94BA0979
S1130590EB01B8010E94BA09072E000C880B990BD5
S11305A00E94F9080E945D090E94C808862F0E94D3
S11305B021022E9A61E070E080E090E00E947A01CE
S11305C02E98BE01DD0F880B990B0E94F9080E943A
S11305D05D090E94C808862F0E9421022F9A61E0BB
S11305E070E080E090E00E947A012F9885B1807ECF
S11305F085B98BB18F718BB9DF91CF911F910F9119
S11306000895E1E8F0E080818260808388EE93E0E1
S11306109093890080938800EFE6F0E08081826007
S1130620808308950F931F93CF936AEA87E70E940C
S11306301201C82F6BEA87E70E9412012C2F30E0C9
S1130640322F2227282B30936705209366056CEA06
S113065087E70E941201C82F6DEA87E70E94120102
S11306602C2F30E0322F2227282B3093650520933E
S113067064056EEA87E70E941201C82F6FEA87E7D4
S11306800E9412012C2F30E0322F2227282B309386
S113069063052093620566EB87E70E941201C82F69
S11306A067EB87E70E9412012C2F30E0322F2227BC
S11306B0282B309361052093600568EB87E70E943F
S11306C01201C82F69EB87E70E9412012C2F30E03A
S11306D0322F2227282B30935F0520935E056AEB87
S11306E087E70E941201C82F6BEB87E70E94120173
S11306F02C2F30E0322F2227282B30935D052093B6
S11307005C056CEB87E70E941201C82F6DEB87E74D
S11307100E9412012C2F30E0322F2227282B3093F5
S11307205B0520935A056EEB87E70E941201C82FE0
S11307306FEB87E70E9412012C2F30E0322F222723
S1130740282B309359052093580560EB87E70E94C6
S11307501201C82F61EB87E70E9412012C2F30E0B1
S1130760322F2227282B309353052093520562EB16
S113077087E70E941201C82F63EB87E70E941201EA
S11307802C2F30E0322F2227282B30935105209331
S1130790500564EB87E70E941201C82F65EB87E7D9
S11307A00E9412012C2F30E0322F2227A901482B5E
S11307B0CA0190934F0580934E0540915205509184
S11307C0530560E070E040934A0550934B056093F5
S11307D04C0570934D05009150051091510520E092
S11307E030E0009346051093470520934805309365
S11307F04905A0E0B0E08093420590934305A0939F
S11308004405B093450580915E0590915F05092EDE
S1130810000CAA0BBB0B80933A0590933B05A09365
S11308203C05B0933D058091640590916505092EC2
S1130830000CAA0BBB0B8093360590933705A0934D
S11308403805B09339058091660590916705092EA6
S1130850000CAA0BBB0B8093320590933305A09335
S11308603405B09335058091620590916305092E96
S1130870000CAA0BBB0B80932E0590932F05A0931D
S11308803005B09331058091600590916105092E82
S1130890000CAA0BBB0B80932A0590932B05A09305
S11308A02C05B0932D05409326055093270560939E
S11308B028057093290580915A0590915B05992329
S11308C06CF0092E000CAA0BBB0B8093540590937B
S11308D05505A0935605B09357050FC09195819582
S11308E09109092E000CAA0BBB0B8093540590931D
S11308F05505A0935605B0935705CF911F910F91BD
S11309000895CF934EE264EF87E70E94E60080E00B
S113091090E000000196883C2FEA9207D1F766EF39
S113092087E70E941201C82F67EF87E70E94120130
S11309302C2F30E0322F2227A901482BCA01092E7F
S1130940000CAA0BBB0B8093220590932305A09364
S11309502405B0932505CF910895CF92DF92EF92AD
S1130960FF920F931F9340912205509123056091AC
S11309702405709125058091420590914305A0912D
S11309804405B09145059A01AB01281B390B4A0B6C
S11309905B0B6091460570914705809148059091E5
S11309A049050E94AA096B017C010B2EBFE0F59456
S11309B0E794D794C794BA95D1F7B02D8091540594
S11309C090915505A0915605B0915705072E7BE0EF
S11309D0880F991FAA1FBB1F7A95D1F7702D4091DC
S11309E0580550915905052E000C660B770B4C0DDC
S11309F05D1D6E1D7F1D84179507A607B7078CF034
S1130A0000E010E098010F5F1F4F2F4F3F4F841BF2
S1130A10950BA60BB70B84179507A607B7079CF78A
S1130A2003C000E010E09801D701C601801B910BC0
S1130A30A20BB30B80933E0590933F05A093400512
S1130A40B09341050896A11DB11D689413F8B5959E
S1130A50A795979587951694D1F780931E05909343
S1130A601F05A0932005B09321051F910F91FF90BE
S1130A70EF90DF90CF9008950F931F93CF9344E3AB
S1130A8064EF87E70E94E60080E090E000000196B2
S1130A90883C0FEA9007D1F766EF87E70E941201BE
S1130AA0C82F67EF87E70E9412014C2F50E060E0E7
S1130AB070E0762F652F542F44278A019B01080F7D
S1130AC0111D211D311D00931A0510931B05209340
S1130AD01C0530931D0500930A0510930B05209304
S1130AE00C0530930D05CF911F910F9108954F92EE
S1130AF05F926F927F928F929F92AF92BF92CF92AA
S1130B00DF92EF92FF920F931F93CF93DF9300D066
S1130B1000D0CDB7DEB740903E0550903F056090C1
S1130B20400570904105D301C201805A9F40A1093C
S1130B30B10989839A83AB83BC839C01AD01BC0159
S1130B40CD010E94AA092B013C01032E3CE07594BF
S1130B506794579447943A95D1F7302D60912E05B8
S1130B6070912F0580913005909131050E94AA095A
S1130B704B015C01072E7DE0B594A794979487946C
S1130B807A95D1F7702D60912A0570912B0580918B
S1130B902C0590912D05A30192010E94AA09BB275F
S1130BA097FDB095AB2F880D991DAA1DBB1D02960C
S1130BB0A11DB11DB595A79597958795B595A79551
S1130BC0979587959C01AD0130584F4F5F4F6091C9
S1130BD026057091270580912805909129050E948A
S1130BE0AA096B017C010B2EBFE0F694E794D7941D
S1130BF0C794BA95D1F7B02D60913A0570913B0531
S1130C0080913C0590913D05A30192010E94AA099F
S1130C102B013C01032E3BE0759467945794479451
S1130C203A95D1F7302D6091360570913705809152
S1130C3038059091390529813A814B815C810E9464
S1130C40AA09DC01CB01072E7BE0B595A795979502
S1130C5087957A95D1F7702D840D951DA61DB71D26
S1130C6040913205509133056091340570913505FA
S1130C70440F551F661F771F440F551F661F771FAC
S1130C80840F951FA61FB71F0296A11DB11DB59510
S1130C90A79597958795B595A7959795879540912D
S1130CA00A0550910B0560910C0570910D059A0190
S1130CB0AB01281B390B4A0B5B0BA0E5B3EC0E947C
S1130CC0150A6C157D058E059F0588F000E010E07F
S1130CD098010F5F1F4F2F4F3F4F6C197D098E09ED
S1130CE09F096C157D058E059F0598F703C000E0EC
S1130CF010E0980168017901CC0CDD1CEE1CFF1C8E
S1130D00C0920E05D0920F05E0921005F0921105E5
S1130D10A3E4B3EEA70196010E94230A8C013327B2
S1130D2017FD3095232F080D191D2A1D3B1D015356
S1130D30114F2F4F3F4F689413F83595279517950A
S1130D4007951694D1F70C0D1D1D2E1D3F1D009304
S1130D501205109313052093140530931505809103
S1130D602205909123050E94870060910A057091E5
S1130D700B0580910C0590910D050E9496006091E1
S1130D8012057091130580911405909115050E9428
S1130D90960060911205709113058091140590914D
S1130DA015052AE030E040E050E00E94F00920936D
S1130DB016053093170540931805509319050F90A5
S1130DC00F900F900F90DF91CF911F910F91FF9093
S1130DD0EF90DF90CF90BF90AF909F908F907F90D7
S1130DE06F905F904F9008954EEA60E08CE30E940C
S1130DF0E60045ED60E08CE30E94E60040E860E038
S1130E008CE30E94E60048EA60E08CE30E94E6007E
S1130E104FE360E08CE30E94E60043ED60E08CE386
S1130E200E94E60040E060E08CE30E94E60040E4BB
S1130E3060E08CE30E94E6004DE860E08CE30E94F1
S1130E40E60044E160E08CE30E94E60040E260E0FA
S1130E508CE30E94E60040E060E08CE30E94E60040
S1130E6041EA60E08CE30E94E60048EC60E08CE339
S1130E700E94E6004AED60E08CE30E94E60042E155
S1130E8060E08CE30E94E60041E860E08CE30E94AD
S1130E90E6004FEC60E08CE30E94E60049ED60E080
S1130EA08CE30E94E60041EF60E08CE30E94E600E0
S1130EB04BED60E08CE30E94E60040E460E08CE3EC
S1130EC00E94E60044EA60E08CE30E94E60046EA01
S1130ED060E08CE30E94E6004FEA60E08CE30E944D
S1130EE0E6000895AF92BF92DF92EF92FF920F93C4
S1130EF01F93CF93DF937C0141E260E08CE30E9477
S1130F00E60040E060E08CE30E94E6004FE760E02A
S1130F108CE30E94E60042E260E08CE30E94E6007B
S1130F2040E060E08CE30E94E60047E060E08CE390
S1130F300E94E600E7018CEFF81A0F2EFCEBAF2EAF
S1130F40B12CF02D0F2EF4E9DF2EF02D8CE30E944E
S1130F50C60080E40E94DB008E01005E1F4F899171
S1130F600E94DB00C017D107D1F7F501D082E80158
S1130F700E151F0559F7DF91CF911F910F91FF9027
S1130F80EF90DF90BF90AF900895CF93DF9341E24D
S1130F9060E08CE30E94E60040E060E08CE30E94A5
S1130FA0E6004FE760E08CE30E94E60042E260E086
S1130FB08CE30E94E60040E060E08CE30E94E600DF
S1130FC047E060E08CE30E94E6008CE30E94C600E8
S1130FD080E40E94DB00C0E0D4E080E00E94DB00FB
S1130FE02197D9F784E98093BC00DF91CF910895CC
S1130FF0319906C0809109058F5F8093090502C06D
S11310001092090532990AC0809108058F5F809378
S1131010080580910905833038F411C01092080541
S1131020809109058330D0F08091000190910101F5
S1131030019690930101809300011092090580911B
S11310400805833058F080910001909101010197C7
S113105090930101809300011092080508958091F6
S11310600001909101010E947B0208950E94810475
S11310700E94AD040E943C050E94770580911605EC
S1131080909117059093010180930001089543986E
S11310903B9A60E07AE688E190E00E947A01439A04
S11310A00E9455010E94F40682E091E00E947207BA
S11310B00E948E010E94C50720E835E240E050E01E
S11310C060E072E18AE790E00E945E0082E1809332
S11310D0B8000E9412030E9401037894089580913D
S11310E0060590910705883C910530F0109207059C
S11310F0109206050E942F08809104059091050521
S1131100C29730F010920505109204050E94F8076A
S11311108091020590910305883E934030F010922F
S11311200305109202050E94360808950E9447089C
S11311300E946F08FDCF1F920F920FB60F921124D9
S11311408F939F9380910605909107050196909344
S11311500705809306058091040590910505019685
S113116090930505809304058091020590910305F1
S113117001969093030580930205109285001092C6
S113118084009F918F910F900FBE0F901F90189520
S11311900E943C0988F09F5798F0B92F9927B751BE
S11311A0B0F0E1F0660F771F881F991F1AF0BA9507
S11311B0C9F714C0B13091F00E945609B1E0089506
S11311C00C945609672F782F8827B85F39F0B93FF8
S11311D0CCF3869577956795B395D9F73EF49095BA
S11311E08095709561957F4F8F4F9F4F0895E89438
S11311F009C097FB3EF490958095709561957F4F5B
S11312008F4F9F4F9923A9F0F92F96E9BB27939508
S1131210F695879577956795B795F111F8CFFAF418
S1131220BB0F11F460FF1BC06F5F7F4F8F4F9F4F49
S113123016C0882311F096E911C0772321F09EE8A7
S1131240872F762F05C0662371F096E8862F70E00D
S113125060E02AF09A95660F771F881FDAF7880FE7
S11312609695879597F9089557FD9058440F551F03
S113127059F05F3F71F04795880F97FB991F61F014
S11312809F3F79F087950895121613061406551F8B
S1131290F2CF4695F1DF08C0161617061806991FF7
S11312A0F1CF86957105610508940895E894BB27EC
S11312B066277727CB0197F908950E943C09E8F047
S11312C09E37E8F09639B8F49E3848F4672F782FA3
S11312D08827985FF9CF8695779567959395953983
S11312E0D0F3B62FB1706B0F711D811D20F487955B
S11312F07795679593950C9481090C949C090C94AB
S11313005709882371F4772321F09850872B762F7F
S113131007C0662311F499270DC09051862B70E005
S113132060E02AF09A95660F771F881FDAF7880F16
S11313309695879597F908959F3F31F0915020F441
S1131340879577956795B795880F911D969587959D
S113135097F90895DB018F939F930E94150ABF911B
S1131360AF91A29F800D911DA39F900DB29F900DF0
S11313701124089597FB072E16F4009407D077FDE7
S113138009D00E94280A07FC05D03EF49095819567
S11313909F4F0895709561957F4F0895A1E21A2E8D
S11313A0AA1BBB1BFD010DC0AA1FBB1FEE1FFF1F05
S11313B0A217B307E407F50720F0A21BB30BE40B55
S11313C0F50B661F771F881F991F1A9469F760959C
S11313D07095809590959B01AC01BD01CF01089556
S11313E0052E97FB1EF400940E94070A57FD07D0B0
S11313F00E94CE0907FC03D04EF40C94070A5095C2
S11314004095309521953F4F4F4F5F4F08959095EC
S11314108095709561957F4F8F4F9F4F0895EE0F84
S1131420FF1F0590F491E02D09940E943C0AA59FAA
S1131430900DB49F900DA49F800D911D11240895CB
S1131440B7FF0C94150A0E94150A821B930B08958A
S1131450AA1BBB1B51E107C0AA1FBB1FA617B707D6
S113146010F0A61BB70B881F991F5A95A9F78095F2
S11314709095BC01CD010895A29FB001B39FC00116
S1131480A39F700D811D1124911DB29F700D811DAC
S10D14901124911D0895F894FFCF74
S113149AF1D8000000000000000000000000000075
S11314AA000080808080808080808080808080802E
S11314BA000080000000000000000000000000009E
S11314CA000000000000808000008080000000000E
S11314DA00000000000000000000000000008080FE
S11314EA00000000000000000000808080808080EE
S11314FA80808080808080800000000000000000DE
S113150A00008080808080808080808080808080CD
S113151A0000000000000000000080E0F8FCFE7FEC
S113152A7F7F7F7F7F7F7F7F7F7F7F7F7F7F7F3FFD
S113153AF0FFFF0700000000000000000080C0E088
S113154AE0F0F8FCFE7F3F1480FFFF3F000000003C
S113155A000000000000000000000000C0FFFF3F80
S113156A000080E0F0FCFEFE7F7F7F7F7F7F7F7F2D
S113157A7F7F7F7F7F7F7F3F00000060787C7E7F54
S113158A7F7F7F7F7F7F7F7F7F7F7F7FFFFFFF1F3D
S113159A0000000000000000E0FCFF1F070100003B
S11315AA000000000000000000000000000000F835
S11315BAFFFF030080C0C0E0F0F8FCFE7F3F1F0F6E
S11315CA0F070301000000C0FFFF3F0000000000F6
S11315DA0000000000000000000000C0FFFF1F0020
S11315EAE0FCFF1F070100000000000000000000EB
S11315FA00000000000000000000000000000000DD
S113160A0000000000000000000000E0FFFF0F00DF
S113161A00000000000080FEFFFFF1F0F0F0F0F09F
S113162AF0F0F0F0F0F0F0F0F0F0F0F0F010F8FF75
S113163AFFFFFE7F3F1F3FFFFFFFF1800000000016
S113164A000000000000C0FFFFFFF0F0F0F0F0F02F
S113165AF0F0F0F0F0F0F0F0F0F0F0FFFF1F80FE91
S113166AFFFFF1F0F0F0F0F0F0F0F0F0F0F0F0F04D
S113167AF0F0F0F0F030E0F0F0F0F0F0F0F0F0F02C
S113168AF0F0F0F0F0F0F0F0F0F0F8FFFF0F0000E7
S113169A00000000000007070707070707070707F6
S11316AA070707070707070707FFFF7F03F8FFFF77
S11316BA03010000000000010F7FFFFFFCE00000AF
S11316CA00000000000007070707070707070707C6
S11316DA070707070707070707FFFFFF0780FFFF3B
S11316EA3F07070707070707070707070707070744
S11316FA0707070707E0FFFF0F070707070707079B
S113170A0F3FFFFFFFFF87070707070707000000D0
S113171A00000000000000000000000000000000BB
S113172A000000008080E0F8FF7F0700FCFFFF0153
S113173A00000000000000000000030F7FFFFFFC10
S113174AE0000000000000000000000000000000AB
S113175A000000008080E0F8FE7F0F00C0FFFF3F1A
S113176A000000000000000000000000000000006B
S113177A00000000F0FFFF07000000000000000066
S113178A0000010F3FFFFFFCE080000000000000A2
S113179A000000E0FFFFFFFFFFFFFFFFFFFFFFFF67
S11317AAFFFF7F7F3F1F0F07010000FEFF7F01003D
S11317BA00000000000000000000000000031FFFFA
S11317CAFF3F08E0FFFFFFFFFFFFFFFFFFFFFFFFF1
S11317DAFFFF7F7F3F1F0F0701000040FFFFFFFF4E
S11317EAFFFFFFFFFFFFFFFFFFFFFFFFFFFFFFFFFB
S11317FAFFFF0FF0FFFF07000000000000000000D9
S113180A0000000000010F7FFF7F1C0000000000A1
S113181A00000000000000000000000000000000BA
S113182A00000000000000000000000000000000AA
S113183A000000000000000000000000000000009A
S113184A000000000000000000000000000000008A
S113185A000000000000000000000000000000007A
S113186A000000000000000000000000000000006A
S113187A000000000000000000000000000000005A
S113188A000000000000000000000000000000004A
S105189A000048
S9030000FC
