:100000000C943F000C945C000C945C000C945C001D
:100010000C945C000C945C000C945C000C945C00F0
:100020000C945C000C945C000C945C000C946A02D0
:100030000C945C000C945C000C945C000C945C00D0
:100040000C945C000C945C000C945C000C945C00C0
:100050000C945C000C945C000C945C000C945C00B0
:100060000C945C000C945C0065016C0172017901D8
:10007000800187018E0195019A01A101A801112437
:100080001FBECFEFD8E0DEBFCDBF11E0A0E0B1E0F2
:10009000E4E8F7E002C005900D92A230B107D9F76D
:1000A00021E0A2E0B1E001C01D92A630B207E1F765
:1000B0000E9465020C94C0030C9400000F931F93E0
:1000C000689413F896958795779567951694D1F768
:1000D0000E948403CA01B901615071098109910923
:1000E0000E94BD020E9423030E948E02072F182F38
:1000F000292F33270093C5006093C40088E98093BB
:10010000C1008EE08093C2001F910F910895389A2C
:10011000259A2D98279A2F98269A2E98549A5C986B
:10012000539A5B98249A239A229A219A209A579A52
:10013000569A559A08952F9A2E9A5C9A5B9A5F98D0
:1001400028982A982B982C985E985D9829982F9833
:100150002E985C985B980895AB01BC014115510540
:100160006105710561F080E090E0DC01000001961E
:10017000A11DB11D481759076A077B07B9F70895F4
:100180000E949B00409A60E47DE083E090E00E9442
:10019000AC0040980E949B002F9A2E9A5C9A5B9A22
:1001A0005F9A2F982E985C985B9860E47DE083E0DE
:1001B00090E00E94AC000E949B002F9A2E9A5C9ABD
:1001C0005B9A289A2F982E985C985B9860E47DE063
:1001D00083E090E00E94AC000E949B002F9A2E9A30
:1001E0005C9A5B9A2A9A2F982E985C985B9860E4A8
:1001F0007DE083E090E00E94AC000E949B002F9A7B
:100200002E9A5C9A5B9A2B9A2F982E985C985B9802
:1002100060E47DE083E090E00E94AC000E949B00DF
:100220002F9A2E9A5C9A5B9A2C9A2F982E985C980B
:100230005B9860E47DE083E090E00E94AC000E9467
:100240009B002F9A2E9A5C9A5B9A5E9A2F982E9812
:100250005C985B9860E47DE083E090E00E94AC00F5
:100260000E949B002F9A2E9A5C9A5B9A5D9A2F9817
:100270002E985C985B9860E47DE083E090E00E94BB
:10028000AC000E949B002F9A2E9A5C9A5B9A299A46
:100290002F982E985C985B9860E47DE083E090E076
:1002A0000E94AC000895E82F85B1807E85B98BB19E
:1002B0008F718BB98E2F90E08B30910508F04CC078
:1002C000FC01EC5CFF4F0C94A60385B18D6185B9F0
:1002D0008BB1806C8BB9089585B1856085B98BB180
:1002E0008BB9089585B1896185B98BB1806A8BB965
:1002F000089585B18D6085B98BB1806A8BB90895F9
:1003000085B1856085B98BB180668BB9089585B15B
:100310008C6085B98BB1806E8BB9089585B18C6185
:1003200085B98BB1806E8BB9089585B1856085B92B
:100330005F9A089585B18D6185B98BB1806E8BB957
:10034000089585B18D6085B98BB1806E8BB90895A4
:1003500085B185B98BB18BB90895EF92FF920F9358
:100360001F93CF93DF93EC010F2EFAE0EF2EF12CC9
:10037000F02DB7010E9470030E9453015B9A61E067
:1003800070E080E090E00E94AC005B9804E610E032
:10039000CE01B8010E947003B7010E947003072EBE
:1003A000000C880B990B0E94BF020E9423030E943D
:1003B0008E02862F0E9453015C9A61E070E080E01B
:1003C00090E00E94AC005C98CE0168EE73E00E9461
:1003D0007003EB01B8010E947003072E000C880B1C
:1003E000990B0E94BF020E9423030E948E02862F57
:1003F0000E9453012E9A61E070E080E090E00E943C
:10040000AC002E98BE01DD0F880B990B0E94BF0235
:100410000E9423030E948E02862F0E9453012F9A6E
:1004200061E070E080E090E00E94AC002F9885B120
:10043000807E85B98BB18F718BB9DF91CF911F9180
:100440000F91FF90EF900895E1E8F0E080818260E5
:10045000808388EE93E09093890080938800EFE694
:10046000F0E0808182608083089580910001909106
:1004700001010E94AD01089543983B9A60E07AE63D
:1004800088E190E00E94AC00439A0E9487000E949D
:10049000C00020E835E240E050E060E072E18AE729
:1004A00090E00E945E000E9424027894089580915A
:1004B000040190910501883C910530F010920501EE
:1004C000109204010E94350208950E943C020E948D
:1004D0005702FDCF1F920F920FB60F9211248F93E8
:1004E0009F938091040190910501019690930501DD
:1004F00080930401809102019091030101969093F1
:1005000003018093020110928500109284009F9154
:100510008F910F900FBE0F901F9018950E940203AD
:1005200088F09F5798F0B92F9927B751B0F0E1F0B4
:10053000660F771F881F991F1AF0BA95C9F714C064
:10054000B13091F00E941C03B1E008950C941C039B
:10055000672F782F8827B85F39F0B93FCCF386959D
:1005600077956795B395D9F73EF4909580957095FA
:1005700061957F4F8F4F9F4F0895E89409C097FB77
:100580003EF490958095709561957F4F8F4F9F4F6A
:100590009923A9F0F92F96E9BB279395F6958795AE
:1005A00077956795B795F111F8CFFAF4BB0F11F471
:1005B00060FF1BC06F5F7F4F8F4F9F4F16C0882318
:1005C00011F096E911C0772321F09EE8872F762F4E
:1005D00005C0662371F096E8862F70E060E02AF08F
:1005E0009A95660F771F881FDAF7880F969587957B
:1005F00097F9089557FD9058440F551F59F05F3FE4
:1006000071F04795880F97FB991F61F09F3F79F034
:1006100087950895121613061406551FF2CF4695B6
:10062000F1DF08C0161617061806991FF1CF869538
:100630007105610508940895E894BB27662777271C
:10064000CB0197F908950E940203E8F09E37E8F085
:100650009639B8F49E3848F4672F782F8827985F2A
:10066000F9CF86957795679593959539D0F3B62F01
:10067000B1706B0F711D811D20F48795779567957B
:1006800093950C9447030C9462030C941D038823E8
:1006900071F4772321F09850872B762F07C06623BB
:1006A00011F499270DC09051862B70E060E02AF07C
:1006B0009A95660F771F881FDAF7880F96958795AA
:1006C00097F908959F3F31F0915020F487957795E1
:1006D0006795B795880F911D9695879597F9089519
:1006E00097FB072E16F4009407D077FD09D00E94DF
:1006F000AC0307FC05D03EF4909581959F4F08957B
:10070000709561957F4F0895A1E21A2EAA1BBB1B1D
:10071000FD010DC0AA1FBB1FEE1FFF1FA217B307CD
:10072000E407F50720F0A21BB30BE40BF50B661FE3
:10073000771F881F991F1A9469F7609570958095A7
:1007400090959B01AC01BD01CF010895EE0FFF1FF5
:100750000590F491E02D0994AA1BBB1B51E107C041
:10076000AA1FBB1FA617B70710F0A61BB70B881F41
:10077000991F5A95A9F780959095BC01CD010895D0
:04078000F894FFCF1B
:02078400B82299
:00000001FF
